:020000040800F2
:100000008045002069010008BD180008D90B0008D0
:1000100000000000000000000000000000000000E0
:1000200000000000000000000000000005190008AA
:100030000000000000000000C1180008211900089D
:100040007B0100087B0100087B0100087B010008A0
:100050007B0100087B0100087B0100087B01000890
:100060007B0100087B0100087B0100087B01000880
:100070007B0100087B0100087B0100087B01000870
:100080007B0100087B0100087B0100087B01000860
:100090007B0100087B0100087B0100087B01000850
:1000A0007B0100087B0100087B010008E1190008C2
:1000B0003D1A00087B0100087B0100087B01000855
:1000C0007B0100087B0100087B0100087B01000820
:1000D0007B0100087B010008000000007B01000894
:1000E0007B0100087B0100087B010008B10B0008C0
:1000F0000000000000000000000000007B0100087C
:1001000000000000000000000000000000000000EF
:100110000000000000000000000000007B0100085B
:100120007B0100087B0100087B0100087B010008BF
:100130007B0100087B0100087B0100087B010008AF
:100140007B0100087B0100087B0100087B0100089F
:100150007B0100080348854600F0DCFB00480047AF
:10016000612A000880450020044880470448004771
:10017000FEE7FEE7FEE7FEE7FEE7FEE74D190008B3
:100180005501000803460B439B0703D009E008C94B
:10019000121F08C0042AFAD203E00B780370401C37
:1001A000491C521EF9D27047D2B201E00270401CC5
:1001B000491EFBD270470022F6E710B513460A46E7
:1001C00004461946FFF7F0FF204610BD30B505463E
:1001D0002A460B4610781C78521C5B1C002801D064
:1001E000A042F7D0002C03D0002802D06D1CEFE70E
:1001F000284630BDF8B502464A40D40F42004B00B5
:1002000052085B089A4202D20246084611464A004A
:1002100023D0C30D4A00DDB2120EAD1A202D35DAFF
:1002200049020126490AF6058A19002C00D05242DB
:1002300020214F1B1146B9402A411018C20D9A4285
:1002400021D0002C17D0012D08DCDA05801AD20F3E
:100250008019D207DBB200F024F9F8BDDA05801A64
:10026000012340001B06C01880185A428018CA0F8C
:100270001043490007E04908C2071143DA05801A14
:1002800080194008801800F004F9F8BD61000122CF
:10029000511A001BF7E70122D2075140AAE70122B9
:1002A000D2075040A6E7024670B54A40D30FDB079D
:1002B00040002DD04A002AD0010E140E0002120276
:1002C0000919400A520A8418E50104465443000AF9
:1002D000120A2E045043A4194219200CC543AA182F
:1002E000120C0125AD03521C521912047F3924044B
:1002F00000D0521C104301D44000491EC2B20C066B
:10030000C0092018401C4008802A02D003E00020C9
:1003100070BD40084000002900DA0020184370BD7D
:1003200070B502464A40D50F40004A00ED0740082C
:100330005208002814D0002A12D0C40DD30D410257
:100340000120C0055202490A520AE41A091812187B
:100350007D34914201D3641C00E04900002C01DA95
:10036000002070BD0023914201D3891A0343400845
:1003700049000028F7D100290AD0914202D1012179
:10038000C90705E0914201D2012101E00121C943E1
:10039000E005C018401900F07CF870BD0122D207BA
:1003A000002800DB101A002900DB511A814201D815
:1003B00001207047002070470122D207002800DB8F
:1003C000101A002900DB511A814201D30120704725
:1003D0000020704710B500229623114600F061F806
:1003E00010BD410040020122400AD205090E8018CA
:1003F0007F2901DA00207047962903DC9622511AE2
:10040000C8407047963988407047C20FD2074000F5
:1004100040080BD0C10D0723DB01C91840020905B4
:10042000400A1143C20840071143704700200146AB
:100430007047F0B51FB40646002082B00546402440
:10044000019100901BE0019922460F46304600F0D2
:10045000A8FA049A059B801A994110D310461946B0
:10046000224600F08EFA361A8F410197224601206B
:100470000021009F00F085FA38184D410090204679
:10048000641E0028DFDC019B00982946324607B035
:10049000F0BD002904DA401C490001D140084000A9
:1004A000704770B40024050C05D11024000402D15B
:1004B000002921D01124050E01D100020834050FB6
:1004C00001D10001241D850F01D18000A41C00284A
:1004D00001DB4000641C002908D020252E1B0D469E
:1004E000F540A14000D001212943084301061B1B10
:1004F000000ADB1D02D5002070BC7047DB05181810
:1005000080180029F8DA401C4900F5D170BC400879
:100510004000704710B541000DD04100090E9629EA
:1005200009DC7E290ADC07DB410205D0C00F7F21F0
:10053000C007C905401810BD002010BD9622541AEE
:1005400020210A1B01469140E040FFF7A2FFA04096
:1005500010BD0000F0B507460846584087B0C00FF0
:10056000049048000E46590040084908BC1A8841CA
:1005700005D2384631461E4617460B4602465800FD
:10058000400810434CD0300D039040055900400DF9
:10059000490D0590401A0290402872DA1803012193
:1005A000000B09050843019004980092002805D02B
:1005B0000199524200208841009201900298402106
:1005C0000A1A0199009800F0DCF905460C466B46C2
:1005D00007CB00F0F7F9C0197141039A0E0D002303
:1005E000D71756401A467A40164344D0049A002A38
:1005F0002DD0029A012A039A15DC1205C01A9141E6
:1006000001263605001C7141D20F059ED2070093CA
:10061000019202962A46234600F000FA07B0F0BD88
:1006200038463146FAE71605224A0F46B218C01A74
:10063000B74101210905001C4F4100187F411146B7
:1006400018187941E20F10436D19644113E0E20775
:100650006D0815436408C2071443039A0126120566
:10066000C01A91413605001C7141CE074008304345
:100670004908C01851412A46234600F0C2F9CDE787
:10068000FFE7049801224000C117121A00238B4192
:1006900004983146C417381AA141EEE730B401245A
:1006A000E407634030BC55E730B40124E4076140FF
:1006B00030BC4FE70000E0FFF0B51FB488B00B99E5
:1006C0000998002448400999C00F49004908099138
:1006D000C0070B990090490049080B9109990898A7
:1006E000A64608431CD00B990A98084318D00998CD
:1006F00001244000420D4800410D099824050003E3
:10070000000B204309900B980003000B20430B9033
:1007100050181C494018002201901446104605E06C
:10072000002001460DB0F0BD032801DA034600E0C9
:1007300003239C46C11A0AAE0AE05F0008ADED5BD8
:100740004F00F75B7D430027AA187C41491C5B1EC4
:100750006145F2DD410004AB5A522104120C0A43F8
:10076000240C401C0828DFDB019802900099704699
:1007700001910090059B049A0799069800F04EF9A4
:10078000D0E700000DFCFFFFF0B50C465C4085B0E3
:10079000E40FE40703944C000026640859009446D3
:1007A000490802460296224321D062460A431ED0DF
:1007B0006200570D4A000E032303550D0124024623
:1007C0002C492405781B1B0B360B4018234326436A
:1007D000614600901C46501AB44103D30098401C57
:1007E000009002E0921800985B41002803DA002094
:1007F000014605B0F0BD00200121090507468646E7
:1008000011E064461D46141BB54106D36546521BD4
:10081000B341744607430C43A646CD074008490838
:10082000284392185B4105460D43EAD11046184310
:1008300013D06046194650407140084306D06046C8
:10084000101AB34106D20122002306E00022012340
:10085000DB0702E00122D2435310009874460105E1
:10086000381C6141029C039D0019694100F0C9F8E0
:10087000BFE70000FD030000C20F4100400201235A
:10088000400ADB05D207090EC0187F2901DA0020D3
:100890007047962903DC9623591AC84001E096391F
:1008A0008840002AF4D04042704700004A00090303
:1008B0000123090B1B0519430A4B10B5520D9A422F
:1008C00002DA0020014610BD064B34339A4203DCA5
:1008D0009A1A00F066F810BD034BD21800F051F8D8
:1008E00010BD0000FF030000CDFBFFFF10B5002985
:1008F00004DB0124E40740428C412146002B04DB49
:100900001C460123DB075242A341994200D1904289
:1009100010BD00001CB5094800900948019005462B
:100920000126009C05E0E36807CC33430C3C984764
:100930001034AC42F7D3FFF711FC0000548A0008D2
:10094000748A000870B50446002903D000202022D4
:10095000012310E0002801D00020C043C046C0465B
:100960000DE02546D5408D4205D30D469540641BCC
:100970001D46954040191546521E002DF1DC2146BA
:1009800070BD10B5202A04DB0146203A91400020BA
:1009900010BD914020239C1A0346E3401943904028
:1009A00010BD10B5202A04DB0846203AD0400021B3
:1009B00010BD0B46D340D0402024A21A91400843DA
:1009C000194610BD10B5202A06DBCB170846203A81
:1009D0001041C1170B4306E00B461341D0402024C1
:1009E000A21A91400843194610BD420005D04200AA
:1009F000120E52428A4201DB00207047C9050818D6
:100A0000704710B5002B08DA0024401C6141921891
:100A10005B411A4301D14008400010BDF0B51FB43E
:100A200082B005460C0003D0084606F0EFFA02E05B
:100A300006F0ECFA20300246009021462846FFF7E7
:100A4000A0FF049B059A04460F4618431143084330
:100A500014D0184610431BD0009840210A1A18469B
:100A60000599FFF79EFF05460E46009A05990498E2
:100A7000FFF787FF084305D0012004E020463946F0
:100A800007B0F0BD0020C11705430E432C43374388
:100A900000990E986305401A7905E40A00220C4378
:100AA000FD0A0A3002D500200146E9E701051019C8
:100AB00069410C9C0D9D00196941FFF7A2FFDFE71A
:100AC000C217C10F504010B54018CA079623002125
:100AD000FFF7E7FC10BD000080B5A8B040F2F410AD
:100AE0001690FFE71698411E169168B3FFE704F0D1
:100AF000B9FC014615A801800088012820DBFFE72A
:100B000017A801904021FFF756FB01983F2104F000
:100B1000CDFC0246019814A90A800A88002181545C
:100B20002149FFF753FB50B1FFE7204817A906F012
:100B30003FFA04F08FFC27A9012008702BE0FFE7A3
:100B4000012001F01DFBCDE704F08CFC014613A849
:100B500001800088012816DBFFE703A800904021F0
:100B6000FFF729FB00983F2104F0A0FC0099024602
:100B700002A802800288002088540A4806F018FA69
:100B800004F068FC03E0064806F012FAFFE727A924
:100B900000200870FFE727A8007828B080BDC04675
:100BA00043830008CB880008CF890008388A0008F2
:100BB00080B540F2002001F0CDFB48B1FFE740F2E4
:100BC000002001F0BFFB03490868401C0860FFE7F4
:100BD00080BDC04664000020FFE7FEE780B5FFE768
:100BE000174840F2001101F0E3FDFFE7054806F069
:100BF000DFF940F2F41001F0C3FA16490020087042
:100C000080BDC0465A83000880B5FFE70C4840F21B
:100C1000001101F0C5FDFFE70A4806F0C9F90A48CE
:100C200000F01EFE20B9FFE7084806F0C1F903E016
:100C3000074806F0BDF9FFE706490120087080BDAE
:100C4000000400484085000888130000A8850008BB
:100C5000AD83000860000020F0B5DFB05EA91591FB
:100C6000002010900870C74804F090F9C64804F0BE
:100C70008DF90920C0060F9007210E9104221192D0
:100C800001F02EFD0E990F980822129201F028FD16
:100C90000F980221012213920C2301F0A6FD0F9858
:100CA0001099119B032201F0E7FDB848149004F05D
:100CB00089FD1498E121490204F002FD109914986D
:100CC00004F0ADFE1099149804F085FE1099149864
:100CD00004F05DFE1199149804F06EFE12991498B8
:100CE00004F08EFE149804F0B9FD13991C2002F054
:100CF0001DFB1498052104F0E7FD00F0E3FEFFF76B
:100D00006DFF159914200870FFE75EA80078002891
:100D100048D0FFE704F09EFB5CA9002008719C49C5
:100D20005C915B90FFE75B98032813D8FFE7FFE730
:100D30009648A94904F0AAFD08B9FFE7F8E75B99CE
:100D40005CA8415C914804F031FDFFE75B98401CD2
:100D50005B90E8E740F22C1001F012FA04F082FBFD
:100D6000014652A801800088012812DBFFE753A842
:100D70000D90202104F09AFB0D988749FFF726FA81
:100D800030B1FFE704F066FB844806F011F909E092
:100D900003E0804806F00CF9FFE75E98401E5EA96C
:100DA0000870B2E75EA8007860B9FFE77C4806F0FB
:100DB000FFF8FFE77B4806F0FBF840F2E83001F06F
:100DC000DFF9F7E7784806F0F3F84FA900200C9018
:100DD0008872764808817648509076484F9004F0A3
:100DE00039FB0C984E90FFE74E98092813D8FFE77F
:100DF000FFE7F148F14904F049FD08B9FFE7F8E7DA
:100E00004E994FA8415CEC4804F0D0FCFFE74E98A7
:100E1000401C4E90E8E740F2F41001F0B1F904F004
:100E200021FB01464DA801800088012814DBFFE763
:100E30003DA80B904021FFF7BEF90B983F2104F02D
:100E400077FB0B9902463CA8028002880020885458
:100E50005A4806F0ADF803E0574806F0A9F8FFE756
:100E600039A90A20088156483A905648399004F02A
:100E7000F1FA00203890FFE73898082813D8FFE7E8
:100E8000FFE7CD48CD4904F001FD08B9FFE7F8E7D9
:100E9000389939A8415CFD4804F088FCFFE7389890
:100EA000401C3890E8E740F2F41001F069F904F0D2
:100EB000D9FA014637A801800088012814DBFFE732
:100EC00017A80A908021FFF776F90A987F2104F08D
:100ED0002FFB0A99024616A8028002880020885437
:100EE0003A4806F065F803E0374806F061F8FFE796
:100EF000374806F05DF80B20069000F065F9642095
:100F0000059001F03DF90020079000F091FA059856
:100F100001F036F91720089000F022FA059801F048
:100F20002FF90320099000F0EBFA059801F028F959
:100F30000524204600F026FC059801F021F9012542
:100F4000284600F0B5FB059801F01AF90426304652
:100F500000F044FB059801F013F90727384600F02C
:100F60009BF90699079A089B09980497039602959E
:100F700001940090174806F01BF8FFF745FE5FB09C
:100F8000F0BDC046110700001105000000440040FC
:100F900041540D0AA1840008CF890008BE860008CC
:100FA0000F8300082B830008C18400080D0A00008D
:100FB0004444523F41542B415D8900081289000886
:100FC00046473F0D41542B4345890008FE880008E1
:100FD000E7840008A98700080707000080B5CAB0A9
:100FE00048904791469200204590489838B1FFE7D5
:100FF000479820B1FFE74798008820B9FFE749A943
:101000000220087054E0FFE74598469988424BD289
:10101000FFE704F027FA014644A801800088012870
:101020003BDBFFE704A840F2001104F081FA01461F
:1010300003A80180008803282EDBFFE70398C11E68
:1010400002A80180008847990988884205DDFFE7EA
:101050004798008802A90880FFE701A900200880BE
:10106000FFE701A8008802A9098888420DDAFFE796
:1010700001A8028804A81018C07848998854FFE78E
:101080000198401C01A90880EBE702984799088065
:1010900049A9002008700BE0FFE7012001F070F87B
:1010A0004598401C4590AFE749A901200870FFE72B
:1010B00049A800784AB080BD10B58AB004920A46AB
:1010C00001460498099108A90A8007AA108006A879
:1010D0000370098812880378354805F069FF3548A0
:1010E00005F066FFFFE7CE48CE4904F0CFFB08B914
:1010F000FFE7F8E707A803904178C94804F056FBDA
:10110000039841782E4805F053FFFFE7C448C549CE
:1011100004F0BCFB08B9FFE7F8E707A802900178E4
:10112000F34804F043FB02980178254805F040FF9E
:10113000FFE7EF48EF4904F0A9FB08B9FFE7F8E73C
:1011400006A801900178EA4804F030FB0198017884
:101150001B4805F02DFF05A900200880FFE705A822
:10116000008808A9098888421CDAFFE7099805A9C0
:101170000988415C124805F01BFFFFE7DC48DD49A8
:1011800004F084FB08B9FFE7F8E7099805A9098886
:10119000415CD74804F00AFBFFE70598401C05A90D
:1011A0000880DCE7074805F003FF0AB010BDC04621
:1011B0007D830008AD890008004400400707000057
:1011C000A78900087389000880B58AB008A9009132
:1011D000088004F03FF900980088020AC3B22A4947
:1011E00003A8019005F0F4FE0199F64805F0E0FE31
:1011F00000200290FFE7029903A8405C98B1FFE746
:10120000FFE7F148F14904F041FB08B9FFE7F8E7CF
:10121000029903A8415CEC4804F0C8FAFFE7029881
:10122000401C0290E7E7FFE7E748E84904F02EFB9F
:1012300008B9FFE7F8E7E4480D2104F0B7FAFFE743
:10124000E148E24904F022FB08B9FFE7F8E7DE488D
:101250000A2104F0ABFAFFF73FFC48B1FFE708A80A
:1012600001880C4805F0A4FE09A90120087006E0D9
:10127000074805F09DFE09A900200870FFE709A8AE
:1012800000780AB080BDC046D28900080044004002
:1012900074880008CB86000880B58AB008A9009140
:1012A000087004F0D7F8009802782A4903A8019042
:1012B00005F08EFE0199F94805F07AFE00200290B3
:1012C000FFE7029903A8405C98B1FFE7FFE7F44805
:1012D000F44904F0DBFA08B9FFE7F8E7029903A83C
:1012E000415CEF4804F062FAFFE70298401C02906C
:1012F000E7E7FFE7EA48EB4904F0C8FA08B9FFE777
:10130000F8E7E7480D2104F051FAFFE7E448E54922
:1013100004F0BCFA08B9FFE7F8E7E1480A2104F055
:1013200045FAFFF7D9FB48B1FFE708A801780B4859
:1013300005F03EFE09A90120087006E0064805F008
:1013400037FE09A900200870FFE709A800780AB055
:1013500080BDC0462E8A00089D880008948700083A
:1013600080B58AB008A90091087004F073F800985D
:1013700002782A4903A8019005F02AFE0199FC4849
:1013800005F016FE00200290FFE7029903A8405CDA
:1013900098B1FFE7FFE7F748F74904F077FA08B993
:1013A000FFE7F8E7029903A8415CF24804F0FEF970
:1013B000FFE70298401C0290E7E7FFE7ED48EE499F
:1013C00004F064FA08B9FFE7F8E7EA480D2104F0F1
:1013D000EDF9FFE7E748E84904F058FA08B9FFE7F4
:1013E000F8E7E4480A2104F0E1F9FFF775FB48B19A
:1013F000FFE708A801780D4805F0DAFD09A90120EA
:10140000087006E0084805F0D3FD09A9002008701F
:10141000FFE709A800780AB080BDC046188A000816
:101420000044004007070000618800086887000842
:1014300080B58AB008A90091087004F00BF80098F4
:1014400002782A4903A8019005F0C2FD0199FE48DF
:1014500005F0AEFD00200290FFE7029903A8405C72
:1014600098B1FFE7FFE7F948F94904F00FFA08B926
:10147000FFE7F8E7029903A8415CF44804F096F905
:10148000FFE70298401C0290E7E7FFE7EF48F049CA
:1014900004F0FCF908B9FFE7F8E7EC480D2104F087
:1014A00085F9FFE7E948EA4904F0F0F908B9FFE7F0
:1014B000F8E7E6480A2104F079F9FFF70DFB48B197
:1014C000FFE708A801780D4805F072FD09A9012081
:1014D000087006E0084805F06BFD09A900200870B7
:1014E000FFE709A800780AB080BDC046E48900087B
:1014F000004400400707000009880008088700082A
:1015000080B58AB008A90091087003F0A3FF009885
:1015100002782B4903A8019005F05AFD0199CA48A9
:1015200005F046FD00200290FFE7029903A8405C09
:1015300098B1FFE7FFE7C548C54904F0A7F908B926
:10154000FFE7F8E7029903A8415CC04804F02EF9D0
:10155000FFE70298401C0290E7E7FFE7BB48BC4961
:1015600004F094F908B9FFE7F8E7B8480D2104F052
:101570001DF9FFE7B548B64904F088F908B9FFE757
:10158000F8E7B2480A2104F011F9FFF7A5FA60B1B3
:10159000FFE708A801780F4805F00AFD08980E49F2
:1015A000087009A90120087006E0094805F000FD4F
:1015B00009A900200870FFE709A800780AB080BDDB
:1015C000098A0008EC880008004400400707000072
:1015D000498800084E8700080C00002080B58AB0BA
:1015E00008A90091087003F035FF009802782A4995
:1015F00003A8019005F0ECFC0199934805F0D8FC94
:1016000000200290FFE7029903A8405C98B1FFE731
:10161000FFE78E488E4904F039F908B9FFE7F8E78B
:10162000029903A8415C894804F0C0F8FFE70298DA
:10163000401C0290E7E7FFE78448854904F026F95B
:1016400008B9FFE7F8E781480D2104F0AFF8FFE79C
:101650007E487F4904F01AF908B9FFE7F8E77B48AC
:101660000A2104F0A3F8FFF737FA48B1FFE708A80A
:1016700001780E4805F09CFC09A90120087006E0DD
:10168000094805F095FC09A900200870FFE709A8A2
:1016900000780AB080BDC046228A0008EC880008A5
:1016A0000044004007070000888800087D87000884
:1016B00080B58AB008A90091087003F0CBFE0098AD
:1016C00002782A4903A8019005F082FC01995E483E
:1016D00005F06EFC00200290FFE7029903A8405C31
:1016E00098B1FFE7FFE7EF48594904F0CFF808B990
:1016F000FFE7F8E7029903A8415CEA4804F056F8CE
:10170000FFE70298401C0290E7E7FFE7E5485049F1
:1017100004F0BCF808B9FFE7F8E7E2480D2104F04F
:1017200045F8FFE7DF484A4904F0B0F808B9FFE799
:10173000F8E7DC480A2104F039F8FFF7CDF948B1A1
:10174000FFE708A801780E4805F032FC09A901203E
:10175000087006E0094805F02BFC09A90020087074
:10176000FFE709A800780AB080BDC046F0890008EC
:10177000EC88000800440040070700001E880008AD
:101780001F87000880B58AB008A90091087003F08F
:1017900061FE009802782B4903A8019005F018FC1F
:1017A0000199294805F004FC00200290FFE7029906
:1017B00003A8405C98B1FFE7FFE7BA48244904F06A
:1017C00065F808B9FFE7F8E7029903A8415CB54856
:1017D00003F0ECFFFFE70298401C0290E7E7FFE709
:1017E000B0481B4904F052F808B9FFE7F8E7AD48E4
:1017F0000D2103F0DBFFFFE7AA48154904F046F886
:1018000008B9FFE7F8E7A7480A2103F0CFFFFFF781
:1018100063F960B1FFE708A801780F4805F0C8FB3D
:1018200008980E49087009A90120087006E00948C7
:1018300005F0BEFB09A900200870FFE709A80078A1
:101840000AB080BDFC890008EC8800080044004014
:101850000707000033880008368700080D000020C5
:1018600080B582B00090FFE70098411E009178B1EA
:10187000FFE7B44840F2002100F0A2FF20B1FFE7EB
:1018800001A90120087012E0012000F079FCEBE7CB
:10189000AC4840F2002100F093FF0146481E814110
:1018A000054805F085FB01A900200870FFE701A8A5
:1018B000007802B080BDC04627890008704700004C
:1018C000EFF309800E4A1168283808600022734639
:1018D000FCC044464D4656465F46F0C072B604F022
:1018E0000DFC62B6064A116808681830F0C8A046B8
:1018F000A946B246BB4680F309882838FCC8184779
:10190000FC09002004207146084203D0EFF309804F
:10191000024A1047EFF30880004A10474D5C000868
:1019200080B582B003F03CFD019004F0CFFF28B1F8
:10193000FFE7012000070449086000E0FFE7019885
:1019400004F0A7F802B080BD04ED00E080B582B0DD
:101950001B490868012210430860FFE71848006827
:101960008007002801D4FFE7F8E716490868164AFF
:10197000104008600868154A10400860104908685F
:10198000134A10400860134908680F22904308600A
:101990001149086840F20312904308600868032266
:1019A0009207904308600D4900200190086003F001
:1019B000A3FC01990120C00601F0CEFC02B080BD5D
:1019C00000100240041002400C00FF08FFFF007FDF
:1019D000FFFFF2FE2C1002403010024008100240BF
:1019E00080B582B011490868401C086010482E4933
:1019F00003F09CFFB8B1FFE70E480088FF280DDC1C
:101A0000FFE70B4803F0CAFE01A908700198094BD3
:101A10001A88511C198008498854FFE70448224954
:101A200003F064FFFFE702B080BDC0469C3E00208B
:101A30000038014062000020A03E002080B582B046
:101A40001848194903F072FFD8B1FFE7154803F0B1
:101A5000A5FE01A9087015480088154988420FDCC9
:101A6000FFE7019813490B88134AD0540888401C9B
:101A70000F4A104008800D490888401C0880FFE785
:101A8000FFE708480D4903F001FF28B1FFE70548CB
:101A90000A4903F0ECFEFFE70248094903F026FF7C
:101AA00002B080BD00440040050005078C0E0020F8
:101AB000FF030000900E00208C0A002003070000A6
:101AC0000002020780B586B01D48009003F05EFA60
:101AD000009803F05BFA009803F058FA1948029056
:101AE0000122059240F200130193114600F07DFEA1
:101AF000019B029800210391032200F0BDFE029891
:101B00000399059A40F20023049300F06EFE40F220
:101B1000006003F03BFA0598092103F017FB039AD4
:101B20000498114600F096FB049800F001FC04981C
:101B300000F008FC05992B2001F0F8FB06B080BDF1
:101B4000120500000004004881B00146684601709B
:101B50000021405600280DD4FFE700216846415679
:101B60001F200A4602400120904049098900024A8C
:101B70008850FFE701B0704700E100E070B582B027
:101B8000024601A80270009100214056002816D498
:101B9000FFE7002401A908570322D3431840174A3E
:101BA000805809578C07E50EFF24AC40A043009CE9
:101BB000A401E4B2AC402043194088501AE001A9C6
:101BC00008780F24204008380322D34318400A4ADB
:101BD0008058002549578D07EE0EFF25B540A843D4
:101BE000009DAD01EDB2B5402843214008391940B0
:101BF0008850FFE702B070BD1CED00E000E400E09B
:101C000080B584B0019101460198039102A9088032
:101C10000398098800F033F804B080BD10B586B091
:101C2000049003A8018002920193049838B1FFE761
:101C3000029820B1FFE703A8008820B9FFE705A9B3
:101C40000020088017E0019800F0F6F90298049946
:101C500003AA00921288FEF795FA00990298098863
:101C6000FFF7CEFF00990298098800F027FA039841
:101C700005A90880FFE705A8008806B010BD80B55B
:101C800084B0039002A80180039820B1FFE702A866
:101C9000008808B9FFE719E001A900200880FFE7E4
:101CA00001A8008802A9098888420FDAFFE700F03E
:101CB0006BF90346039901A80288885C5840885450
:101CC000FFE70198401C01A90880E9E704B080BD46
:101CD00010B586B0049003A8018002920193049885
:101CE00060B1FFE7029848B1FFE703A8008828B178
:101CF000FFE703A80088812804DBFFE705A900208F
:101D0000088018E000F066F80199086002980499CC
:101D100003AA00921288FEF735FA00990298098802
:101D200000F04CF9009902980988FFF7A8FF039882
:101D300005A90880FFE705A8008806B010BD0000CF
:101D400080B584B000200390FFE70398032807DCE8
:101D5000FFE700F0A5F8FFE70398401C0390F4E7C5
:101D6000D44800680290D448006801900299019814
:101D700041406846017002990A0A00995140017079
:101D800001A94A8800995140017002A9CA780099B6
:101D900051400170007804B080BDC04680B582B06B
:101DA00001A900200880FFE701A80088FF280CDCBB
:101DB000FFE7FFF7C5FF01A90A887F498854FFE7BD
:101DC0000198401C01A90880EEE77A4900200880AC
:101DD00002B080BD80B584B000200390B548006893
:101DE0000E4901910840B1490291FEF75CFAFEF7F5
:101DF000F8FA019A02990304039818430390AE4835
:101E000000681040FEF74FFAFEF7EBFA81B2039834
:101E100008430390039804B080BDC046FFFFFF7FD6
:101E200080B586B0059005A801900088FEF7D2FA2B
:101E30008F21C9050291FEF773FA3F21090603912C
:101E4000FEF731FA1449FEF7D5F901460198994A8F
:101E500011604088FEF7BEFA0299FEF761FA039915
:101E6000FEF721FA0D49FEF7C5F99349086051497B
:101E7000002008800490FFE70498C0087C2807D859
:101E8000FFE7FFF75DFFFFE70498401C0490F3E7CE
:101E9000FFF784FF06B080BDCDCCCC3DCDCC4C3E11
:101EA00080B592B0374907910868059081480E9037
:101EB00000688969FEF79EF905F02EFE07990490E7
:101EC00048680390886801907B480F900068C96952
:101ED000FEF790F905F0DCFE079A01460198126AB8
:101EE0000292FEF7E0F90299FEF784F905F0D0FEC0
:101EF00001460398FEF7D7F9049902460598069221
:101F0000FEF7D1F90699FEF775F9079902460F9881
:101F10001192CA680C920068496AFEF76BF905F0E5
:101F2000FBFD079902460E980B920A690A924A69CC
:101F300008920068896AFEF75DF905F0A9FE079A24
:101F400001460898D26A0992FEF7ADF90999FEF7A1
:101F500051F905F09DFE01460A98FEF7A4F90B9988
:101F600002460C980D92FEF79EF90D99FEF742F984
:101F70000E9A0F991090119810601098086012B086
:101F800080BDC0461000002080B582B0094802889C
:101F90000949895C01AA11700188491C01800088E7
:101FA000FF2803DDFFE7FFF7F9FEFFE701A8007850
:101FB00002B080BD0C0600200E06002010B586B0D1
:101FC000059004A801800088012801DCFFE730E0CB
:101FD00002A900200880FFE702A8008804A9098858
:101FE0004908884225DAFFE7FFF7CEFF03A908700A
:101FF00002AB1888097804AA1288121A91FBF2F42D
:102000006243891A401801AA108005981988405C1B
:102010006946087005991088085C1B88C8540098A8
:10202000059912888854FFE70298401C02A908808D
:10203000D2E706B010BD000080B586B0059005A8B7
:1020400001904088FEF7C6F918490291FEF768F939
:102050000146019804910088FEF7BCF90299FEF749
:102060005FF9039004980021FEF798F950B9FFE753
:1020700004980F49FEF7A0F920B9FFE704980D492D
:102080000860FFE703980021FEF788F950B9FFE7E1
:1020900003980749FEF790F920B9FFE7039806492E
:1020A0000860FFE7FFF77AFE06B080BD00401C46DF
:1020B0000000C8424000002044000020B0B5C8B075
:1020C000479046A801800088012801DCFFE754E022
:1020D00046A80088410805A80180008840F2011147
:1020E000884205DBFFE705A940F200100880FFE702
:1020F00004A900200880FFE704A8008805A9098832
:1021000088420CDAFFE7FFF73FFF04A90A8806A917
:102110008854FFE70498401C04A90880ECE7059860
:10212000401E03A90880FFE7002103A8405E0028A5
:1021300023D4FFE7002403AB185F06A9095C46AA75
:102140001288121A91FBF2F56A43891A401802AA02
:1021500010804798195F405C01A908704799108862
:10216000085C1B5FC8540198479912888854FFE7A0
:102170000398401E03A90880D6E748B0B0BD000010
:1021800081B00090FFE70098411E0091D8B1FFE7B1
:102190000E48006840F2E831B0FBF1F0401E0C49F7
:1021A00008600C49002008600B4905200860FFE723
:1021B00009480068C003002801D4FFE7F8E7064992
:1021C00000200860DFE701B07047C046080000202B
:1021D00014E000E018E000E010E000E082B0012030
:1021E0000190694608701648006820B1FFE769460B
:1021F000002008701FE01348006820B1FFE769461F
:102200000020087016E01048006820B1FFE769461A
:10221000002008700DE00D4800680D490968491E4E
:10222000884204D1FFE769460220087000E0FFE71A
:10223000FFE7FFE7FFE76846007802B07047C04657
:10224000284100207C4100202441002048410020FA
:10225000A040002085B0049003A8017002A90A7074
:10226000049B4C4A116899431160049B2D4A1168E4
:1022700099431160049B2C4A116899431160049B97
:102280002A4A1168994311600078019020B1FFE754
:102290000198012806D00BE0049A3E4908681043D3
:1022A000086006E0049A1F4908681043086000E0CF
:1022B000FFE702A80078009003282FD800998A0031
:1022C00001A080188746C04600F006B800F00FB89D
:1022D00000F018B800F021B8049A134908681043B8
:1022E0000860049A114908689043086017E0049A4E
:1022F0000D49086890430860049A0C490868104327
:1023000008600CE0049A0849086810430860049AC1
:10231000064908681043086001E000E0FFE705B0E7
:102320007047C04604040140080401400C04014009
:1023300081B00090009A174908681043086001B006
:102340007047C04681B0009000981149086001B004
:102350007047C04684B002900D480068029908405A
:1023600001900C480068029908400090019838B12B
:10237000FFE7009820B1FFE703A90120087003E000
:1023800003A900200870FFE703A8007804B0704795
:10239000140401400004014080B586B0059004910A
:1023A00005981149084003900598049A80180F4A2F
:1023B00080180840029000F007F903980190FFE7A9
:1023C0000198029988420AD2FFE7019800F060F86C
:1023D000FFE7019841F2000140180190F0E700F09A
:1023E00051F806B080BDC04600F0FFFFFF0F0000AF
:1023F00080B58CB00B900A91099200F0E5F80A982C
:1024000008900998C01C800807900998032108408B
:102410000690079801900699401E029009B901980C
:1024200002900298059000200490FFE70498059917
:1024300088420DD2FFE70B9804998A00801808990A
:10244000895800F0D5F8FFE70498401C0490EDE7A8
:10245000069890B1FFE7002003900A98059989003B
:102460004118069A03A8FDF78DFE0B98059989007F
:102470004018039900F0BCF8FFE700F003F80CB037
:1024800080BD00006E4908688022104308607047D4
:1024900080B584B003900120000500F027F80146C4
:1024A00002A801700078D0B9FFE76549019108687A
:1024B000022200921043086003980B4A10600868DB
:1024C0004022104308600120000500F00FF8009A38
:1024D000019902AB1870086890430860FFE702A8F2
:1024E000007804B080BDC0461420024080B584B09E
:1024F000039002A901200870FFE700F025F802A967
:1025000008700398401E0390FFE702A8017800209E
:102510000129019005D1FFE70398411E88410190F0
:10252000FFE70198C0070028E7D1FFE702A800787D
:10253000012804D1FFE702A905200870FFE702A8DF
:10254000007804B080BD000081B0694600200870AA
:102550001C480068C00720B1FFE7694601200870E9
:102560002BE018480068C006002804D5FFE769463C
:102570000420087020E0134800684007002804D5B4
:10258000FFE769460220087015E00E480068000762
:10259000002804D5FFE76946032008700AE00948CF
:1025A00000680004002804D5FFE76946072008708A
:1025B000FFE7FFE7FFE7FFE7FFE76846007801B0C6
:1025C0007047C0460C2002401D48006800060028E5
:1025D00006D5FFE703490448086004480860FFE7A0
:1025E0007047C0460420024023016745AB89EFCD08
:1025F00080B586B00590049101200005FFF776FFB5
:10260000014603A801700078A8B9FFE70C4A0292BE
:10261000116801200190014311600499059A11602D
:102620000005FFF763FF019A029903AB1870086871
:1026300090430860FFE703A8007806B080BDC0465D
:102640001020024080B582B00190009101A801786D
:10265000064803F0ABF8FFE70448054903F016F914
:1026600008B9FFE7F8E7019802B080BD00380140E3
:102670000707000080B586B0014605A802900170EA
:10268000007841001348405A02F080FC029800781C
:102690008200114804908058104903918B58012101
:1026A0000022019200F0A1F80199029B039A04987C
:1026B0001B789B00C058D358032200F0DDF8029A23
:1026C000039804991278920080588958886206B05D
:1026D00080BDC046347E00084C7E00083C7E000869
:1026E00086B00590049103920598006A01900598C0
:1026F000406A009002A900200880FFE702A8008835
:1027000007281DD8FFE702A801880398C840C00722
:1027100080B1FFE702A8018889000F228A40019951
:1027200091430191049900888000814001980843F9
:102730000190FFE7FFE70298401C02A90880DDE74F
:1027400002A908200880FFE702A800880F281FD8E8
:10275000FFE702A801880398C840C00790B1FFE7CF
:1027600002A80188890020390F228A4000999143EC
:102770000091049900888000203881400098084327
:102780000090FFE7FFE70298401C02A90880DBE702
:1027900001980599086200980599486206B070474B
:1027A00082B00190009100980199886202B0704750
:1027B00082B00190009100980199886102B0704741
:1027C00083B001900091019800690099084204D0FB
:1027D000FFE702A90120087003E002A900200870A9
:1027E000FFE702A8007803B0704787B00690059114
:1027F000049203930698006801900698C0680090C0
:1028000002A900200880FFE702A800880F282BD823
:10281000FFE702A801880398C840C007F0B1FFE7AE
:1028200002A801884900032213468B40019999436D
:102830000191059B018849008B4001991943019141
:10284000018849008A4000999143009104990088C9
:1028500040008140009808430090FFE7FFE702989E
:10286000401C02A90880CFE70198069908600098EB
:102870000699C86007B0704710B586B0059004A8E7
:102880000170039202930078012806D1FFE7029AB3
:10289000059948681043486005E0029A0599486820
:1028A00090434860FFE705988068009001A90020E8
:1028B0000880FFE701A800880F281DD8FFE701A8BE
:1028C00001880298C840C00780B1FFE701A80188CD
:1028D000490003228A40009991430091039900889E
:1028E00040008140009808430090FFE7FFE701980F
:1028F000401C01A90880DDE700980599886006B0B2
:1029000010BD83B080B583B0079306920591029005
:1029100005A801900299019A002000F02FF803B059
:1029200080BC01BC03B08646704783B080B583B0DD
:10293000079306920591029005A801900299019AC9
:10294000032000F01BF803B080BC01BC03B0864636
:10295000704783B080B583B00793069205910290CB
:1029600005A801900299019A012000F007F803B030
:1029700080BC01BC03B0864670470000B0B58CB087
:102980000392024603980B900AA8027009910078FE
:1029900023490978884201DAFFE73EE003F08CFF23
:1029A0000890089840F2E831B0FBF1F30A465A4328
:1029B000801A07900898B0FBF1F03C21B0FBF1F3CE
:1029C0000A465A43801A06900898164AB0FBF2F05D
:1029D000B0FBF1F25143401A059008981249B0FB40
:1029E000F1F01821B0FBF1F25143401A0490049920
:1029F000059A069B07980AAC2478A5000B4C6459ED
:102A0000019400900A4804F0D3FA09980B9904F055
:102A1000F3FA084804F0CCFAFFE70CB0B0BDC046AA
:102A20000E07002060EA000080EE3600480000201B
:102A3000967F00087389000883B080B583B0079340
:102A400006920591029005A801900299019A022030
:102A5000FFF794FF03B080BC01BC03B0864670470B
:102A600080B582B000200190FFF704FE0120FFF73F
:102A700001FE02F099FC0F4804F09AFA0E480F4943
:102A80000F4AFFF766FFFEF7E7F80E48FFF761FF12
:102A90000D48FFF7C5F90D48FFF75BFF00F050F94F
:102AA00002F02EFC0A48FFF754FF03F0B3FAFFE7E9
:102AB000FEE7C046907E00085A7F0008847E00082A
:102AC0007B7E0008B47E000878563412CC7E000865
:102AD0005C7E000880B58CB00B903948FFF739FF59
:102AE000FFE7D44800680021CA4309A903F02BFD81
:102AF000012801D0FFE7F4E709A8407800F00AF9BF
:102B00000890089820B1FFE70898407808B9FFE7D7
:102B1000E7E709A80078401E059003284ED80599DC
:102B20008A0001A08018874600F006B800F017B8A8
:102B300000F023B800F02FB809A80490417807AA44
:102B400011708178517040781021022302F054FAFC
:102B50000498417882781E48FFF7FBFE2FE009A811
:102B600003904078112100231A4602F045FA039899
:102B700041781648FFF7EDFE21E009A80290407861
:102B8000122100231A4602F037FA029841780E48C3
:102B9000FFF7DFFE13E00A9806AA107009A801905B
:102BA0004179517040781321022302F025FA0198EF
:102BB000417882880348FFF7CCFE00E0FFE790E70A
:102BC00070800008818000081F800008378000089E
:102BD000E67F000880B584B0014603A80170007844
:102BE0000A2801DBFFE713E003A80190007803F057
:102BF000D5FA0290029841F60011FFF7CDFB01983B
:102C0000007830214143884841180020C870FFE710
:102C100004B080BD80B586B0034605A8037004915A
:102C200003A90A800078092805DCFFE703A80088CB
:102C3000512801DBFFE728E005A8007802F078FAC8
:102C4000029003A800880001019001982F49884252
:102C500001D3FFE719E0029841F60011FFF79CFB52
:102C600002980499019AFFF7C3FB05A80178302266
:102C70004A436D498A1801219170017803A802889E
:102C8000019B0348FFF765FEFFE706B080BDC04625
:102C90006682000810B586B0044605A80470049149
:102CA00003A90A8002930078092804DCFFE703A83F
:102CB000008808B9FFE727E005A8007803F06EFA5E
:102CC0000190029803A9098840181049884201D34D
:102CD000FFE719E0029830B9FFE7019841F60011CB
:102CE000FFF75AFBFFE7019802994018049903AADD
:102CF0001288FFF77DFB05A80078302141434A4840
:102D000041180120C870FFE706B010BD011900008E
:102D10004648704782B001466846017000780A282C
:102D200003DBFFE70020019007E0684600783021D0
:102D300041433D4840180190FFE7019802B07047B9
:102D4000B0B588B0384840F2E011FDF734FA3748A2
:102D500040F21051FDF72FFA35480022069202602A
:102D60000520082103F068FA01460698734A1160AD
:102D700007A90870FFE707A80078092846DCFFE7E5
:102D800007AB029318783022039214464443264935
:102D9000049108551C78104660430C1800200590DB
:102DA00060701D7814466C430C19A0701D78144691
:102DB0006C430C19E0701D7814466C430C1920719B
:102DC0001D7814466C430C1960711D7814466C43D1
:102DD0000C19A0601D7814466C430C19E0601D7836
:102DE00014466C430C192D2560551D7814466C4310
:102DF0000C192E2560551B785A43891821228854B6
:102E0000FFE70798401C07A90870B4E70A4801903B
:102E10000A4800900A480A21052240F21053FFF7A1
:102E200098FD08B0B0BDC046140800207C0000200A
:102E3000F409002010080020000004080000030826
:102E40002082000880B588B0079003F035FD069019
:102E50003748FFF77EFDFFE703F02EFD059004A93C
:102E600000200870FFE704A80078092858DCFFE775
:102E700004A80078FFF74EFF0390039808B9FFE716
:102E800049E0059803998968401A029002982949F7
:102E900088420ED3FFE70398407850B1FFE70399CB
:102EA0000020487004A80178029A2648FFF7C4FD64
:102EB00031E00398407808B9FFE72CE003980079E7
:102EC000012827DBFFE70398407918B3FFE7039851
:102ED0002D21405CF0B9FFE7694601200870049895
:102EE000487000238B7014488880FA20C8801348EB
:102EF00000681A4603F04EFA01280AD1FFE7039949
:102F00002D220120885404A801780D48FFF721FDE7
:102F1000FFE7FFE7FFE70498401C04A90870A2E759
:102F2000FFE706A840F2E83103F048FCFFE793E72B
:102F3000BB800008993A00007017000010080020BC
:102F4000CE800008A580000810B5FFB083B0819046
:102F50001EA900200870FFF7DBFE1D90DC48FFF77C
:102F6000F8FCFFE702F082FA20B9FFE70A2002F03E
:102F7000CFFFF7E702F07AFA1BA9088000201A9029
:102F8000FFE71A98132819DCFFE7012002F0C0FFC1
:102F900002F06CFA014619A8018000881BA9098873
:102FA000884204D1FFE71A98401C1A9005E019984E
:102FB0001BA9088000201A90FFE7E2E702F05AFA06
:102FC00041A840F2001102F0F3FA01461FA8018067
:102FD00000880C2801DCFFE7C4E741A818901F987F
:102FE00017A90880002010900F90FFE70F9817A9ED
:102FF0000988491E88425BDAFFE718980F99405C00
:10300000AA2850D1FFE718990F9840184078552802
:1030100049D1FFE70F98001D17A90988884201DDF3
:10302000FFE745E018990F98411888780002C978A1
:1030300040180EA908800F9809884018401D0D906F
:103040000D98801C17A9098888422BDCFFE7189887
:103050000D99405C552825D1FFE718990D98401827
:103060004078AA281ED1FFE718980F9940180C90B5
:103070000C98007A16A908700C99487A00068A7A8A
:1030800012048018CA7A12028018097B4018159021
:103090000E98093814A908800C980D30139001205F
:1030A000109005E0FFE7FFE70F98401C0F909DE7A9
:1030B0001098C0B9FFE71899087800064A781204FA
:1030C00080188A7812028018C978401815901898CC
:1030D000007916A908701798401F14A9088018983D
:1030E000401D1390FFE716A8017814A802887948BC
:1030F00003F05EFF0BA900200880FFE70BA8018802
:1031000014A802880020914208900DDAFFE70BA86E
:1031100001880120002206924029079001DB0698D1
:10312000079007980890FFE70898C00768B1FFE785
:1031300013980BA90988415C694803F039FFFFE740
:103140000B98401C0BA90880D8E7634803F030FFB8
:103150001598C0B1FFE714A80088012813DBFFE72A
:1031600014A8008880280EDCFFE7139814A90988AA
:10317000159B21AA0592FEF751FD0146059811AA5B
:103180001180129005E0149811A9088013981290EC
:10319000FFE71D98007828B1FFE71D9840780AA93D
:1031A000087029E00AA90020087016A800780128F4
:1031B00018D1FFE711A80088032813DBFFE711A847
:1031C00001880A20022203920F29049001D003985B
:1031D0000490049809A9087012980978405C0AA91B
:1031E0000870FFE70AA800780A2804DBFFE70AA9AD
:1031F00000200870FFE7FFE70AA80178491C20AA11
:1032000011800078FFF786FD1C901C9808B9FFE735
:10321000A8E61C990120487003F04EFB1C998860B9
:1032200016A80078401E029005284FD802998A00FF
:1032300001A080188746C04600F00AB800F016B812
:1032400000F022B800F026B800F02CB800F032B838
:103250001D9900200870129811A9098820AA1288C7
:103260001D9B1C9C009400F057F930E01D99002034
:103270000870129811A909881D9A1C9B20AC2488FB
:10328000009400F045FA22E011A801881348FFF7E6
:1032900038FB1CE0129811A909881D9A1C9B00F0AC
:1032A000E7F814E0129811A909881D9A1C9B00F0F8
:1032B0009FF80CE01D9900200870129811A9098848
:1032C00020AA12881C9B00F057F800E0FFE749E6AF
:1032D000EE810008EC80000873890008078100086F
:1032E0004581000883B0024602A8027001AA11803D
:1032F00000780A2801DBFFE712E002A800783021FD
:10330000414308484018009000990120C87001A866
:103310000088009988620448006800998860FFE787
:1033200003B0704714080020F409002080B584B071
:103330000A46014603A80190017002A90A70002202
:10334000009280560978FEF719FC009901984056C2
:10335000FEF7FAFB04B080BD82B0019000910198A5
:103360000099034A114008430249086002B07047BF
:1033700080FFFF1F08ED00E010B586B0059004A89F
:10338000018003A90A8002930088092804DBFFE773
:1033900004A908200880FFE701A9002008706946F9
:1033A0000870FFE76846007804A90988884211DAA6
:1033B000FFE7059869460978405C28B1FFE7019866
:1033C000401C01A90870FFE7FFE70098401C694610
:1033D0000870E7E703A8018801A8027804A8038819
:1033E0000248FFF7B6FA06B010BDC0464D8100088E
:1033F00010B586B0059004A801800392029303984B
:10340000007828B1FFE703988078022801D0FFE711
:103410002AE00398C088400001AB188003984078E8
:10342000059904AA009212881B88FFF733FC0098C4
:10343000008842080399C8888018C8800399C88802
:103440008988884210DBFFE703994878C988FFF72D
:1034500049FF03990020087003984178C288836867
:103460000248FFF776FAFFE706B010BD00820008B9
:1034700010B586B0059004A80180039202930398CA
:10348000007828B1FFE703988078012801D0FFE792
:103490003EE004A80088010901A80180008808B95D
:1034A000FFE735E00398C08801A909884018512832
:1034B00007DBFFE70398C1885020401A01A9088064
:1034C000FFE70398C188090140181030059901AA47
:1034D00012881201FCF756FE019A0399C8888018D9
:1034E000C8800399C8888988884211DBFFE7039A5E
:1034F000507811461031D288FFF78CFB03990020D9
:10350000087003984178C2880248FFF722FAFFE763
:1035100006B010BD2581000810B594B0169C13901C
:1035200012A8018011A90A8010930088102876D370
:10353000FFE713980690027B417B09028A18817B82
:103540000B04C17B0906C91889180E91027A417AC9
:1035500009028A18817A0B04C17A0906C9188918E8
:103560000D910279417909028A1881790B04C17998
:103570000906C91889180C9102784178090289183E
:1035800082781204C0780006801840180B900BA8AF
:10359000417A0FA8017000780A2801DBFFE7B1E04B
:1035A0001098012101700F98109A50701098817036
:1035B0000BA84289109B9A80109B0022DA80828996
:1035C000109B9A604278109B1A73169A1174418965
:1035D000169A51820E99169A91820C99169AD16177
:1035E0004178169A11710D99169A51710D99169A82
:1035F0002023D154007A28B1FFE71699C868401CEF
:10360000C860FFE70FA801780C9A0BAC237A6078AA
:103610006489019400903D48FFF79BF972E012A87D
:10362000008810286DD3FFE713980590027B417B3B
:1036300009028A18817B0B04C17B0906C918891805
:103640000A91027A417A09028A18817A0B04C17AB6
:103650000906C918891809910279417909028A185D
:1036600081790B04C1790906C91889180891027873
:1036700041780902891882781204C07800068018FF
:103680004018079007A881780FA8017000780A28D1
:1036900001DBFFE736E01099012008700F99109ABE
:1036A0005170109988700A9810998880109900209C
:1036B000C88007ACA188109A91606178109A117344
:1036C000169908740A98169948820898169988825B
:1036D0000998169988616078169908710FA8007882
:1036E0000490607803900998FCF78FFE039A0B46CC
:1036F0000499A4890294019300900348FFF701F90B
:10370000FFE7FFE714B010BDC181000894810008F5
:10371000B0B58EB00C4612990D900CA804800B9297
:103720000A9309AA118000880F2801D8FFE76DE0ED
:103730000D980390027B417B09028A18817B0B0460
:10374000C17B0906C91889180891027A417A0902D1
:103750008A18817A0B04C17A0906C9188918079159
:103760000279417909028A1881790B04C179090625
:10377000C918891806910278417809028918827857
:103780001204C07800068018401805900998411E60
:1037900004A8017000780A2804DBFFE704A90020D0
:1037A0000870FFE70B980121017004980B9A507084
:1037B0000B9A0220907008980B9A90800B9A002028
:1037C000D08007980B9A906005A8029042780B9BD6
:1037D0001A730A9A2123D15407990A9A516281894E
:1037E0000A9A916240780A992C22885404A8019080
:1037F0000078FFF7EFF9019902980978079A437862
:10380000808900900248FFF7A4F8FFE70EB0B0BD32
:103810006C81000880B588B0079006912E4800683A
:1038200004902E48006803902D480068029071486B
:103830000068001D02F008F908B9FFE700E0FFE7A3
:103840000798401CF8B9FFE70698E0B1FFE7FFE7EB
:10385000254948680190019A664803689A60019A70
:1038600092680368DA600268121D019B9B685A60C7
:103870000268121D019B9A60006841610868401C43
:103880000860FFE726E0049807994018059005981E
:1038900058490968486005980499884207D2FFE7AB
:1038A000029854490968091D02F013F911E00398C0
:1038B00050490968091D02F00CF905980949096881
:1038C000884204D2FFE705980649086000E0FFE758
:1038D000FFE7FFE708B080BD70410020040A002028
:1038E0000C0A0020144100204841002010B582B08D
:1038F000019002F023F96B490868401C08603D48BC
:10390000006868B9FFE701983A49086065480068AF
:10391000012803D1FFE700F04FFB00E0FFE713E0D1
:103920003548006870B9FFE732480068C06A0199FD
:10393000C96A884204D8FFE701982E49086000E070
:10394000FFE700E0FFE7FFE72C480168491C016042
:10395000006801990864FFE7FFE70198C06AF4492D
:103960000968884205D9FFE70198C06AF0490860F4
:10397000FFE7FFE7FFE70198C16A142210464843BA
:10398000ED490818406800900098019B98600098E5
:103990008068019BD8600198001D009B9B6858605F
:1039A0000198001D009B9860019BDC6A10466043F3
:1039B000081858610198C06A42438858401C8850D2
:1039C000FFE7FFE702F0C4F80B48006878B1FFE7B3
:1039D000FFE7D8480068C06A0199C96A884203D2E3
:1039E000FFE702F039FA00E0FFE7FFE700E0FFE75A
:1039F00002B010BDFC0900203C410020AC4000207A
:103A000080B582B002F09AF80F480068B0B9FFE7BD
:103A10000E48009002F040F80D48019002F03CF88A
:103A200000990198D24A11600A49086005201021C6
:103A3000002202F001FC0449086000E0FFE702F008
:103A400087F802B080BDC04674410020B440002019
:103A5000C8400020100A002080B582B0FFE70F4860
:103A60000068C0B1FFE702F069F80D48C068C0689F
:103A700001900198001D01F0E7FF0A490868401E07
:103A8000086006490868401E086002F061F8019865
:103A900000F014F9E3E702B080BDC046A440002066
:103AA0005C410020A040002080B582B001900091D0
:103AB0000198006CB8B1FFE701990A6CC8688018DA
:103AC000C8600199C8688968884204D3FFE70199F2
:103AD0000868C86000E0FFE70098019AD168126C9E
:103AE000FCF750FBFFE702B080BD80B586B00590C3
:103AF00004910392002002900598806B0190059834
:103B0000006C78B9FFE70598006848B9FFE70598A9
:103B1000806802F0EDFF029005990020886000E0C7
:103B2000FFE741E00398B8B9FFE7059A50680499A8
:103B3000126CFCF727FB05990A6C486880184860EE
:103B4000059948688968884204D3FFE705990868A1
:103B5000486000E0FFE726E0059AD0680499126CFF
:103B6000FCF710FB05990A6CC868801AC8600599B3
:103B7000C8680968884206D2FFE7059988680A6C18
:103B8000801AC86000E0FFE70398022809D1FFE728
:103B9000019820B1FFE70198401E019000E0FFE787
:103BA00000E0FFE7FFE7FFE70198401C0599886305
:103BB000029806B080BD000080B58AB0012009904F
:103BC000002004900390FFE703980B2810DCFFE728
:103BD000039A1948815C05A881540399405C08B98F
:103BE000FFE705E0FFE7FFE70398401C0390EBE7E2
:103BF00000200890FFE70898002819DCFFE70F482D
:103C00000490049808998A000D49891800230093AC
:103C1000019105A9802202F0ADFD0990099808B92B
:103C2000FFE705E0FFE7FFE70898401C0890E2E7A0
:103C300009980AB080BDC046BE7F0008053E000856
:103C400008410020F0B58BB0119C109C0A9009919E
:103C5000089207930898800000F0E4FC059005980E
:103C6000A0B1FFE7582000F0DDFC0690069840B1B7
:103C7000FFE706985821FCF79EFA05980699086315
:103C800003E0059801F078FFFFE702E000200690CE
:103C9000FFE7069878B1FFE70A980999089A079B09
:103CA000109C119D069E0027039702960195009493
:103CB00000F002F9FFE706980BB0F0BD80B582B0C6
:103CC00001900198006B01F057FF019801F054FF3B
:103CD00002B080BD82B0002000901548006818B185
:103CE000FFE701200090FFE712480068C06A18B1A2
:103CF000FFE70020019018E0CD480068022803D3B8
:103D0000FFE7002001900FE0009818B1FFE70020C6
:103D1000019008E0554800680190554801680198F5
:103D2000401A0190FFE7FFE7FFE7019802B07047F4
:103D3000B0400020FC090020140A002082B001904D
:103D40000B480068006841424841019908600198A9
:103D5000006830B9FFE706480068C0680068009056
:103D600002E000200090FFE7009802B07047C046D4
:103D7000000A002084B043F200000090ED48029059
:103D800002A80078400770B1FFE70298C01D0290BA
:103D90000298072188430290029AE6490098891AFE
:103DA00040180090FFE70299E1480160002141605E
:103DB0000298009A801801900198083801900198A3
:103DC0000722D24310400190019ADC480260026849
:103DD000516002681160029903910199039A891A4E
:103DE00051600068039908600398406803490860BF
:103DF000039840680249086004B0704710410020F1
:103E00000441002080B582B00190FFE7FFF724FE57
:103E100087480068022803D3FFE702F01DF800E09E
:103E2000FFE7FFF757FF0090009802281BD3FFE73A
:103E300002F05EF90D4800680D490968884203D216
:103E4000FFE772B6FFE7FEE7FFF744FF0090009838
:103E5000022804D3FFE7009801F036FF00E0FFE7F7
:103E600002F084FF00E0FFE7D0E7C04614410020E5
:103E70007041002010B584B0069C0390029101921D
:103E800068460370029818B9FFE70698006003E0DF
:103E9000019806990860FFE703980699C86302989D
:103EA000069908640698012102F009FA009806991B
:103EB0004C22885404B010BD10B586B00B9C0A9CEF
:103EC000099C089C05900491039202930A98006B48
:103ED00003998900A522FCF767F90A98016B0398FA
:103EE00080004018001F019001980721884301902D
:103EF00001A80078400718B1FFE772B6FFE7FEE7B8
:103F00000498F8B1FFE700200090FFE700980B2825
:103F100013D8FFE70498009A805C0A998918342224
:103F2000885404980099405C08B9FFE705E0FFE772
:103F3000FFE70098401C0090E8E70A993F22002024
:103F4000885400E0FFE70898062803D3FFE772B61D
:103F5000FFE7FEE70898062803D3FFE7052008904F
:103F600000E0FFE708980A99C86208980A998864EF
:103F70000A98001D01F0A6FD0A98183001F0A2FD74
:103F80000A98006108990620401A0A9988610A98DF
:103F9000406201980A99096B059A029B00F07EFC29
:103FA0000A990860099820B1FFE70A980999086002
:103FB00000E0FFE706B010BD80B584B0002003909C
:103FC000FFE7039805280CD8FFE703981421414325
:103FD0001748401801F060FDFFE70398401C03906C
:103FE000EFE70C48019001F057FD0B48029001F0FB
:103FF00053FD0A4801F050FD094801F04DFD094804
:1040000001F04AFD01990298074A116007490860CA
:1040100004B080BDDC400020F0400020284100209A
:104020005C41002048410020040A00200C0A0020C6
:10403000140A002086B005903D480490FFE70498DC
:1040400000680599884205D2FFE7FFE704980068F9
:104050000490F4E70498364988421ED0FFE704999B
:104060000020344A914202900FD3FFE7049931486F
:10407000314A82180120002300939142019001D916
:104080000098019001980290FFE70298C00718B9C4
:10409000FFE772B6FFE7FEE7FFE704980390039897
:1040A0000499496840180599884209D1FFE70598A5
:1040B000426804994868801848600498059000E0B8
:1040C000FFE70598039003980599496840180499FB
:1040D000096888421AD1FFE70498006817490968FF
:1040E00088420DD0FFE70498006842680599486847
:1040F000801848600498006800680599086004E02A
:104100000E48006805990860FFE704E0049800681D
:1041100005990860FFE704980599884204D0FFE7F5
:1041200005980499086000E0FFE706B07047C046B4
:1041300040410020920E0020FF2F0000080A0020BE
:1041400080B586B0059004910392029300200190FF
:10415000049805994860059800610498039988427D
:1041600013D8FFE703980299401A05998969884294
:1041700003D3FFE70120019006E0EB4800680599B2
:10418000091D01F0A6FCFFE714E00398029988429C
:1041900008D2FFE704980299884203D3FFE7012081
:1041A000019006E0DF4800680599091D01F091FCC7
:1041B000FFE7FFE7019806B080BDC04680B582B03A
:1041C000019001F0BBFC0198806B18B9FFE701205A
:1041D000009002E000200090FFE701F0B9FC009899
:1041E00002B080BD80B582B0019001F0A7FC0198BB
:1041F000806B0199C96B884203D1FFE701200090D1
:1042000002E000200090FFE701F0A2FC009802B05D
:1042100080BD000080B584B003900291C148006861
:10422000C068C06801900198001D01F00DFC019864
:104230002821405C4007002806D5FFE70198039934
:10424000029A00F003F906E001992822885CFE2317
:1042500018408854FFE70198016A884704B080BD80
:1042600080B58AB000200990089007900690FFE77B
:104270007548006806A9002202F065F900B9A3E0BC
:10428000069800280FD5FFE706A8001D02900298A7
:1042900018B9FFE772B6FFE7FEE702990A684868B7
:1042A0008968904700E0FFE70698002800D58AE07B
:1042B000089805900598406928B1FFE70598001D0A
:1042C00001F0C2FB00E0FFE704A800F0EFF8039064
:1042D0000698401E0190082873D801998A0001A011
:1042E0008018874600F010B800F00EB800F037B81C
:1042F00000F03CB800F052B800F006B800F004B886
:1043000000F02DB800F032B805992822885C01230E
:10431000184388540598079B81695918039AFFF739
:104320000FFFD0B1FFE705982821405C4007002827
:1043300008D5FFE70598079982698918039A00F064
:1043400085F806E005992822885CFE2318408854E9
:10435000FFE70598016A884700E0FFE732E005992A
:104360002822885CFE23184088542BE005992822D7
:10437000885C01231843885407980599886105983B
:10438000806918B9FFE772B6FFE7FEE70598039B5F
:10439000816959181A46FFF7D3FE13E005982821C2
:1043A000405C8007002804D4FFE7059801F0E4FB97
:1043B00006E005992822885CFE2318408854FFE710
:1043C00000E0FFE7FFE753E70AB080BD80B584B0A7
:1043D0000390029101F08CFE684600F067F80190AE
:1043E000009858BBFFE7029860B9FFE7039801996E
:1043F000884207D8FFE702F0B9FC03980199FFF75C
:1044000009FF1AE0029838B1FFE7474800680068E2
:10441000414248410290FFE70B4800680399019A26
:10442000891A029A01F024FD02F0A0FC18B9FFE7F6
:1044300001F012FD00E0FFE7FFE702E002F096FC6A
:10444000FFE704B080BDC0467441002080B584B051
:10445000039002910192FFE70398029B816959182A
:10446000019AFFF76DFE48B1FFE703988169029852
:10447000401802900398016A8847EDE704B080BDB8
:1044800008480068006828B9FFE707490020C043D2
:10449000086006E003480068C068006802490860D8
:1044A000FFE77047040A00201441002080B582B065
:1044B000019002F001FA009000980A4909688842C8
:1044C00006D2FFE700F010F801990120086003E030
:1044D000019900200860FFE70098024908600098F1
:1044E00002B080BDF809002080B582B0FFE70D481A
:1044F0000068006858B1FFE70A480068C0680068B3
:10450000019001980021C943FFF784FEEFE7054AB7
:10451000106800900449086810600098086002B0B4
:1045200080BDC046000A0020100A002081B0002093
:10453000009008480068401C18B1FFE772B6FFE71A
:10454000FEE772B6FFE7009808B9FFE7FBE701B0A6
:104550007047C0465800002080B584B00390FFE744
:1045600001A8FFF7EBFB029002980199FFF72EFFDD
:10457000FFF776FEF4E780B584B0039001F0DEFA31
:1045800003984521405C02A90870FFE7002102A8BA
:104590004056012815DBFFE70398406A58B1FFE752
:1045A0000398243002F020FB18B1FFE701F0E2FC91
:1045B00000E0FFE700E004E00298401E02A9087056
:1045C000E4E703994522FF20885401F0C1FA01F085
:1045D000B5FA03984421405C01A90870FFE7002167
:1045E00001A84056012815DBFFE70398006978B160
:1045F000FFE70398103002F0F7FA18B1FFE701F077
:10460000B9FC00E0FFE70198401E01A9087000E036
:1046100000E0E4E703994422FF20885401F098FA6F
:1046200004B080BD80B590B00F9000200B900F9823
:1046300048B3FFE70F980821C94388421FD8FFE716
:104640000F9808300F900FA800784007A8B1FFE737
:104650000F99072001400820401A0A900F980A99E4
:10466000C943884205D8FFE70A990F9840180F9070
:1046700002E000200F90FFE700E0FFE702E00020EB
:104680000F90FFE700E0FFE701F032FD7C48006893
:1046900018B9FFE7FFF76EFB00E0FFE70FA8C0784F
:1046A0000006002800D5DCE00F9800B9D7E00F988D
:1046B00074490968884200D9D1E073480D900068B8
:1046C0000E900E990020714A914209900FD3FFE796
:1046D0000E996E486E4A821801200023079391427A
:1046E000089001D90798089008980990FFE7099861
:1046F000C00718B9FFE772B6FFE7FEE7FFE70E98BD
:1047000041680F9A00209142069006D2FFE70E986A
:104710000068411E88410690FFE70698C00718B35D
:10472000FFE70E980D900E9800680E900E990020ED
:10473000564A914205900FD3FFE70E995348544AC9
:1047400082180120002303939142049001D9039819
:10475000049004980590FFE70598C00718B9FFE793
:1047600072B6FFE7FEE7CAE70E9845490968884236
:1047700073D0FFE70D98006808300B900B9900206C
:10478000424A914202900FD3FFE70B993F48404ABB
:1047900082180120002300939142019001D90098D2
:1047A000019001980290FFE70298C00718B9FFE74F
:1047B00072B6FFE7FEE70E9800680D9908600E9844
:1047C00040680F99884203D2FFE772B6FFE7FEE721
:1047D0000E9840680F99401A11281DD3FFE70E98D4
:1047E0000F9940180C900CA80078400718B1FFE70B
:1047F00072B6FFE7FEE70E9840680F99401A0C99D1
:1048000048600F980E9948600D9800680C990860F0
:104810000C980D99086000E0FFE70E98426819486F
:104820000168891A016000681A490968884205D23E
:10483000FFE7144800681749086000E0FFE70E9999
:1048400048680122D207104348600E990020086092
:1048500011490868401C086000E0FFE700E0FFE73E
:1048600000E0FFE702F082FA0BA80078400718B1D9
:10487000FFE772B6FFE7FEE70B9810B080BDC046B9
:10488000080A00200441002040410020920E002030
:10489000FF2F0000104100201C41002084B0039035
:1048A0000291019200930398001F03900399012045
:1048B000000608600398001F0390019803990860A0
:1048C0000398001F039003992F4808600398001F66
:1048D000039003992D4808600398001F03900399E3
:1048E0002B4808600398001F03900399294808602B
:1048F0000398001F03900399274808600398001F3E
:1049000003900098039908600398001F039003998F
:10491000224808600398001F03900399204808600C
:104920000398001F039003991E4808600398001F16
:10493000039003991C4808600398001F0390039993
:104940001A4808600398001F0390039918480860EC
:104950000398001F03900399164808600398001FEE
:1049600003900399144808600398001F039003996B
:104970004320C04308600398001F039002980399E6
:104980000860039804B070472D45000812121212F7
:1049900003030303020202020101010111111111BB
:1049A0001010101009090909080808080707070767
:1049B000060606060505050504040404A0B01FA9A3
:1049C0000870002002901E901D901C901B901A9061
:1049D00019901890179016901590149013901290AB
:1049E000119010900F900E90F9490D91F9490C918A
:1049F0000B900A90099108900791069005910490F8
:104A0000F54800680C21084080081E901E9803900D
:104A100040B1FFE70398012807D0FFE70398022879
:104A200006D065E0ED481A9065E0ED481A9062E026
:104A3000E94801683F2292041140890C13910068F3
:104A40000121C9060840C00E1290129880011399E6
:104A50004018139013980E2804D3FFE71398401CB6
:104A600013900BE013980F2803D1FFE71020139049
:104A700003E01398801C1390FFE7FFE7D648006817
:104A8000032109040840000C1190119870B9FFE748
:104A9000D44800680F210840401C10901099CF485E
:104AA000B0FBF1F1139848431A9020E011980128C7
:104AB0000ED1FFE7CB4800680F210840401C109042
:104AC0001099C748B0FBF1F1139848431A900DE0D4
:104AD000C44800680F210840401C10901099C2483B
:104AE000B0FBF1F1139848431A90FFE7FFE702E0AB
:104AF000BA481A90FFE7B8480168C9B209090F918E
:104B00000F9A0AA9895C0E911A990E9AD1401991AF
:104B1000016840F200721140090A0F910F9A08A92A
:104B2000895C0E9119990E9AD1401891006843F64C
:104B300000010840C00A0F900F9906A8405C0E9033
:104B400019980E99C84017901FA8007801900B285B
:104B500000D90FE201998A0001A080188746C0465B
:104B600000F016B800F017B800F018B800F019B847
:104B700000F01AB800F0EBB800F0FCB900F0FAB998
:104B800000F0F8B900F06FB900F01CB900F0AEB950
:104B90001A981B90EFE119981B90ECE118981B9064
:104BA000E9E117981B90E6E1F748006840F2001130
:104BB0000840884203D0FFE7F1481690C4E0EF4870
:104BC000006880B2800B1D90EF480068800F1C9039
:104BD0001D980090032800D9B4E000998A0001A034
:104BE0008018874600F006B800F02EB800F056B8DE
:104BF00000F080B81C9820B9FFE71798400816907D
:104C000021E01C98012806D1FFE717980A21B0FB84
:104C1000F1F0169016E01C98022806D1FFE71998CB
:104C20000321B0FBF1F016900BE01C98032806D18D
:104C3000FFE719980B21B0FBF1F0169000E0FFE7B9
:104C4000FFE7FFE7FFE77EE01C9820B9FFE7179832
:104C50008008169021E01C98012806D1FFE71798DC
:104C60000C21B0FBF1F0169016E01C98022806D13A
:104C7000FFE719980521B0FBF1F016900BE01C98A6
:104C8000032806D1FFE719980D21B0FBF1F016902B
:104C900000E0FFE7FFE7FFE7FFE754E01C9830B9CB
:104CA000FFE717980621B0FBF1F0169021E01C9861
:104CB000012806D1FFE717980E21B0FBF1F01690FE
:104CC00016E01C98022806D1FFE719980721B0FBCF
:104CD000F1F016900BE01C98032806D1FFE7199815
:104CE0000F21B0FBF1F0169000E0FFE7FFE7FFE7D0
:104CF000FFE728E01C9820B9FFE71798C008169036
:104D00001FE01C98012804D1FFE7179800091690AE
:104D100016E01C98022806D1FFE719980921B0FB7C
:104D2000F1F016900BE01C98032806D1FFE71998C4
:104D30001121B0FBF1F0169000E0FFE7FFE7FFE77D
:104D4000FFE700E0FFE7FFE716981B9013E18E48AE
:104D50000068800718B9FFE7179815902FE08A4878
:104D6000006803210840012803D1FFE71A98159035
:104D700024E08548006803210840022804D1FFE7A9
:104D800048F20000159018E07F48006803210840B1
:104D9000032810D1FFE77C480068072189040840F8
:104DA000800C0F900F9904A8405C0E900E997548E6
:104DB000C840159000E0FFE7FFE7FFE7FFE7159821
:104DC0001B90D8E0704800688003800F88B90DE020
:104DD0000607080901020304041002400024F4003D
:104DE00000127A002C100240006CDC02189815901A
:104DF00036E06548006803210904084001210904E0
:104E0000884203D1FFE71A98159028E05E480068B1
:104E100003210904084001214904884204D1FFE725
:104E200048F20000159019E0574800680321090472
:104E30000840884210D1FFE75348006807218904E1
:104E40000840800C0F900F9904A8405C0E900E99BA
:104E50004C48C840159000E0FFE7FFE7FFE7FFE799
:104E600015981B9087E048480068C004800F18B967
:104E7000FFE71898159036E04348006841F60001B6
:104E8000084040F60001884203D1FFE71A981590C8
:104E900028E03D48006841F60001084041F2000169
:104EA000884204D1FFE748F20000159019E0364827
:104EB000006841F600010840884210D1FFE73248FF
:104EC0000068072189040840800C0F900F9904A8FE
:104ED000405C0E900E992B48C840159000E0FFE70B
:104EE000FFE7FFE7FFE715981B9044E026480068BE
:104EF0004005800F18B9FFE71898149037E0224852
:104F0000006840F20061084040F20021884204D16C
:104F1000FFE747F60050149028E01B48006840F275
:104F20000061084040F20041884204D1FFE748F2A6
:104F30000000149019E01448006840F20061084035
:104F4000884210D1FFE71048006807218904084013
:104F5000800C0F900F9904A8405C0E900E990948A0
:104F6000C840159000E0FFE7FFE7FFE7FFE7149870
:104F70001B9000E0FFE71B9820B070470410024030
:104F8000006CDC020024F4003010024081B00146C5
:104F90006846018000881F220146114001238B4092
:104FA0008109CF4A88581843885001B07047C046DD
:104FB00081B001466846018000881F2201461140E9
:104FC00001238B408109C64A88589843885001B014
:104FD0007047C04681B001466846018000881F22A4
:104FE0000146114001238B408109BD4A885818436E
:104FF000885001B07047C04610B59AB019AC207007
:1050000018A80170179216A8037018980EA90870B6
:10501000179890B1FFE716A8007801280DDBFFE78D
:1050200016A800781E2808DCFFE70EA8401C179978
:1050300016AA1278FBF7A6F8FFE71698411C0DA8F0
:1050400001700178354A01920EA80CAB0093FCF771
:105050003FFE009B01990BAA1080DC783048047059
:105060005B8843700C9B1B0A83700C9BC3700023EE
:10507000029303711288401DFBF784F8029819A966
:105080000978491C0AAA118009A90870FFE709A834
:105090000078022838DCFFE70B98401D0AA90A882F
:1050A00081B21F481723FCF707F804A910200880D5
:1050B00005A840F2D072FBF791FFC0B9FFE719A82D
:1050C0000078FDF727FE0390039840B1FFE70399AE
:1050D0002D220020885403992E228854FFE719A816
:1050E000017809A802781148FDF70BFC14E019A813
:1050F000017809A802780C48FDF79EFCFFE70998A3
:10510000401C09A90870C2E719A8017818A80278FC
:105110000448FDF791FCFFE71AB010BD8C05002094
:105120000F07002052800008CB7F00080480000891
:1051300081B0014668460170017841F6001048438D
:105140000149401801B070470000030885B00A46C5
:1051500004A9087003A8027002789207130F0F22A7
:105160009A40D2430292097802789207120F914036
:105170000191007880080090032835D800998A00B2
:1051800001A080188746C04600F006B800F00EB8AF
:1051900000F016B800F01EB8029A184908681040CE
:1051A0000860019A0868104308601EE0029A1249DC
:1051B000086810400860019A08681043086014E00D
:1051C000029A0C49086810400860019A0868104368
:1051D00008600AE0029A0649086810400860019ACF
:1051E00008681043086000E0FFE705B07047C0465C
:1051F00014000140100001400C0001400800014073
:1052000010B584B00020039002903549086801224F
:10521000120410430860FFE70398401C03903048D5
:1052200000680121490408400290FFE7029900202C
:10523000019039B9FFE703982A49401A411E884175
:105240000190FFE70198C0070028E5D1FFE7244857
:1052500000688003002802D4FFE7FFE7FEE7224949
:105260000868012210430623984308601F490091F3
:105270000868086008680860086840F2004318433E
:1052800008601B4B18680F24A04318600868194B6E
:1052900018400860086819231B0418430860104967
:1052A0000868120610430860FFE70D480068800197
:1052B000002801D4FFE7F8E70C490868032290436F
:1052C00008600868022210430860FFE7074800688A
:1052D0000C210840082801D0FFE7F7E704B010BD13
:1052E00000100240FFFF00000020024004100240B6
:1052F0002C100240FFFF007F80B5FFF781FF80BDCB
:1053000080B584B000230193042000901B481C4901
:1053100040F2002201F02EFA03900398012804D0F5
:10532000FFE71848FDF701FBFFE700230193052085
:1053300000901548154940F2001201F01BFA039045
:105340000398012804D0FFE71148FDF7EEFAFFE7C4
:1053500000230193032000900E480F4940F20012F1
:1053600001F008FA03900398012804D0FFE70B48E6
:10537000FDF7DBFAFFE704B080BDC046492F000807
:10538000677F0008387F0008452E0008E87E000887
:10539000157F0008D52A0008DE7E0008F47E00088C
:1053A000EFF3108072B6704780B586B02748FFF7DC
:1053B000EDFD2748FFF7EAFD0920C006019007210F
:1053C000009140F200220292FDF78AF900990198BB
:1053D00040F20042FDF784F901980221012240F2D7
:1053E0000063FDF702FA0198029B0021039103225A
:1053F0000492FDF741FAE748059000F0E3F90598BB
:10540000E121490200F05CF90399059800F007FBDF
:105410000399059800F0DFFA0399059800F0B7FAB0
:105420000598042100F0C8FA0598082100F0E8FA70
:10543000059800F013FA04991B20FDF777FF0598F3
:10544000052100F041FA06B080BDC0460E060000FE
:1054500011050000144800889549088095490020EE
:1054600008807047934800887047C046914800887C
:105470007047C04681B08B480078411C072001402E
:105480006846017000788849097888420AD0FFE7A9
:105490000548008883490A785300844AD05200980E
:1054A0000870FFE701B07047900E002087B00191AF
:1054B00001460198069105A908807E480088098860
:1054C000884204DAFFE77B480088009003E005A8E3
:1054D00000880090FFE7009804A9088074480088BD
:1054E00003A9088002A900200880FFE702A800881D
:1054F00004A90988884213DAFFE703A90A886E48DD
:10550000805C069A02AB1B88D0540398401C6B4AFF
:1055100010400880FFE70298401C02A90880E5E7D8
:10552000069A04A803880021D154008807B0704768
:1055300086B0019101460198059104A908805D4853
:1055400000880988884204DAFFE75A4800880090FA
:1055500003E004A800880090FFE7009803A90880F2
:1055600002A900200880FFE702A8008803A9098893
:10557000884213DAFFE74E490A884F48805C059A53
:1055800002AB1B88D0540888401C4C4A104008804D
:10559000FFE70298401C02A90880E5E7039A454905
:1055A0000888801A088003A8008806B07047C046A3
:1055B00010B588B0069005A801803A4800783A49AD
:1055C0000978884204D1FFE707A90020088064E039
:1055D000354B187841003548415A04A801803449B8
:1055E0000A8803A90A801A78521C072422401A70DC
:1055F00000880988884207DBFFE704A8008803A920
:105600000988401A009009E003A8018804A80088CE
:10561000401A40F2004140180090FFE7009902A8AC
:105620000180008820B9FFE707A90020088034E046
:1056300002A8008805A90988884204DDFFE70598CB
:1056400002A90880FFE701A900200880FFE701A860
:10565000008802A90988884213DAFFE703A90A88AB
:105660001548805C069A01AB1B88D0540398401CF7
:10567000124A10400880FFE70198401C01A90880E9
:10568000E5E704980A490880029A0A490888801ABE
:105690000880029807A90880FFE707A8008808B0DB
:1056A00010BDC046680000207A0000206A0000207B
:1056B0008E0E00208C0E00208C0A0020FF030000BC
:1056C00080B588B007900691002005900490039063
:1056D0000290079801905949884214D0FFE7019839
:1056E0005749884214D0FFE701985649884214D0A0
:1056F000FFE701985449884214D1FFE70520FFF7DE
:105700005DF905900FE00A20FFF758F905900AE0CF
:105710000220FFF753F9059005E00220FFF74EF94C
:10572000059000E0FFE7079800680004002818D5FE
:10573000FFE70598400006994A088018B0FBF1F091
:105740000290029814490840049002980007400F04
:10575000039004A8008803A9098808430799C86032
:1057600016E0059806994A088018B0FBF1F00290FF
:10577000029809490840049002980F2108400390BC
:1057800004A8008803A9098808430799C860FFE7AF
:1057900008B080BD00380140F0FF000081B00090EB
:1057A0000098406A0649084001B0704782B00190F5
:1057B00000910098024908400199886202B0704740
:1057C000FF01000080B586B00590059804901B4944
:1057D000884217D0FFE70498194988421AD0FFE79A
:1057E0000498184988421DD0FFE70498164988425A
:1057F00020D1FFE718480390FFF7ECFB0398FFF771
:10580000D7FB18E013480290FFF7E4FB0298FFF77C
:10581000CFFB10E00E480190FFF7DCFB0198FFF78B
:10582000C7FB08E009480090FFF7D4FB0098FFF79A
:10583000BFFB00E0FFE706B080BDC046004400406B
:10584000004C0040005000400038014014040000AB
:1058500013040000110400000E03000081B000904A
:105860000099086801221043086001B0704782B0B7
:1058700001906846018000881F2108400122824073
:105880000199086A1043086202B0704784B0009121
:1058900001460098029101A9088002980A8892099D
:1058A000805809881F221140C840C00720B1FFE777
:1058B00003A90120087003E003A900200870FFE796
:1058C00003A8007804B0704782B001906846018058
:1058D00000881F220146114001238B400199820953
:1058E00088581843885002B07047000082B0019079
:1058F000009100980C49884208D1FFE70199D02215
:10590000885848F20003984388500BE000981F2104
:1059100009040840000C012282400199086A1043E2
:105920000862FFE702B0704709340F3410B585B044
:1059300003900291002001900090039802A9098829
:1059400089094058029C1F231C4001210A46A2409D
:10595000104001900398029A920D8058029A1B04FD
:105960001A40120C914008400090009838B1FFE7AF
:10597000019820B1FFE704A90120087003E004A901
:1059800000200870FFE704A8007805B010BD82B0C1
:1059900001900091019908680122904308600199E3
:1059A000086840F2006290430860009A0199086814
:1059B0001043086002B0704782B0019000910199D5
:1059C0000868042290430860009A0199086810430F
:1059D000086002B0704782B0019000910199086898
:1059E0000122904308600199486843F20002904305
:1059F0004860009A019948681043486002B07047B7
:105A000082B00190009101990868082290430860D3
:105A1000009A019908681043086002B0704782B08C
:105A20000190009101990868012290430860019952
:105A3000086841F2000290430860009A01990868E2
:105A40001043086002B0704782B00190019800696D
:105A50000090019988684968886001994868896858
:105A60004860009840680199884205D1FFE7019895
:105A700080680099486000E0FFE701990020086114
:105A800000990868401E08600098006802B07047DE
:105A9000704780F31088704781B0009000990846E5
:105AA00008304860009A0020C1439160009A114676
:105AB0000831D160009A11460831116100990860DF
:105AC00001B0704781B0009000990020086101B0DA
:105AD000704784B00390029102980068009000988B
